{
  "abi": [
    {
      "inputs": [
        {
          "internalType": "address",
          "name": "_keth",
          "type": "address"
        },
        {
          "internalType": "address",
          "name": "_daoAddress",
          "type": "address"
        },
        {
          "internalType": "address",
          "name": "_interestRateModel",
          "type": "address"
        },
        {
          "internalType": "string",
          "name": "_name",
          "type": "string"
        },
        {
          "internalType": "string",
          "name": "_symbol",
          "type": "string"
        },
        {
          "internalType": "uint256",
          "name": "_maxBorrowRatio_RAY",
          "type": "uint256"
        },
        {
          "internalType": "uint256",
          "name": "_maxSlashableRatio_RAY",
          "type": "uint256"
        }
      ],
      "stateMutability": "nonpayable",
      "type": "constructor"
    },
    {
      "inputs": [],
      "name": "AccessControlBadConfirmation",
      "type": "error"
    },
    {
      "inputs": [
        {
          "internalType": "address",
          "name": "account",
          "type": "address"
        },
        {
          "internalType": "bytes32",
          "name": "neededRole",
          "type": "bytes32"
        }
      ],
      "name": "AccessControlUnauthorizedAccount",
      "type": "error"
    },
    {
      "inputs": [
        {
          "internalType": "address",
          "name": "target",
          "type": "address"
        }
      ],
      "name": "AddressEmptyCode",
      "type": "error"
    },
    {
      "inputs": [
        {
          "internalType": "address",
          "name": "account",
          "type": "address"
        }
      ],
      "name": "AddressInsufficientBalance",
      "type": "error"
    },
    {
      "inputs": [
        {
          "internalType": "address",
          "name": "spender",
          "type": "address"
        },
        {
          "internalType": "uint256",
          "name": "allowance",
          "type": "uint256"
        },
        {
          "internalType": "uint256",
          "name": "needed",
          "type": "uint256"
        }
      ],
      "name": "ERC20InsufficientAllowance",
      "type": "error"
    },
    {
      "inputs": [
        {
          "internalType": "address",
          "name": "sender",
          "type": "address"
        },
        {
          "internalType": "uint256",
          "name": "balance",
          "type": "uint256"
        },
        {
          "internalType": "uint256",
          "name": "needed",
          "type": "uint256"
        }
      ],
      "name": "ERC20InsufficientBalance",
      "type": "error"
    },
    {
      "inputs": [
        {
          "internalType": "address",
          "name": "approver",
          "type": "address"
        }
      ],
      "name": "ERC20InvalidApprover",
      "type": "error"
    },
    {
      "inputs": [
        {
          "internalType": "address",
          "name": "receiver",
          "type": "address"
        }
      ],
      "name": "ERC20InvalidReceiver",
      "type": "error"
    },
    {
      "inputs": [
        {
          "internalType": "address",
          "name": "sender",
          "type": "address"
        }
      ],
      "name": "ERC20InvalidSender",
      "type": "error"
    },
    {
      "inputs": [
        {
          "internalType": "address",
          "name": "spender",
          "type": "address"
        }
      ],
      "name": "ERC20InvalidSpender",
      "type": "error"
    },
    {
      "inputs": [],
      "name": "FailedInnerCall",
      "type": "error"
    },
    {
      "inputs": [
        {
          "internalType": "address",
          "name": "token",
          "type": "address"
        }
      ],
      "name": "SafeERC20FailedOperation",
      "type": "error"
    },
    {
      "anonymous": false,
      "inputs": [
        {
          "indexed": true,
          "internalType": "address",
          "name": "owner",
          "type": "address"
        },
        {
          "indexed": true,
          "internalType": "address",
          "name": "spender",
          "type": "address"
        },
        {
          "indexed": false,
          "internalType": "uint256",
          "name": "value",
          "type": "uint256"
        }
      ],
      "name": "Approval",
      "type": "event"
    },
    {
      "anonymous": false,
      "inputs": [
        {
          "indexed": true,
          "internalType": "address",
          "name": "borrower",
          "type": "address"
        },
        {
          "indexed": false,
          "internalType": "uint256",
          "name": "amount",
          "type": "uint256"
        }
      ],
      "name": "Borrowed",
      "type": "event"
    },
    {
      "anonymous": false,
      "inputs": [
        {
          "indexed": true,
          "internalType": "address",
          "name": "depositor",
          "type": "address"
        },
        {
          "indexed": false,
          "internalType": "uint256",
          "name": "amount",
          "type": "uint256"
        }
      ],
      "name": "KETHClaimed",
      "type": "event"
    },
    {
      "anonymous": false,
      "inputs": [
        {
          "indexed": true,
          "internalType": "address",
          "name": "depositor",
          "type": "address"
        },
        {
          "indexed": false,
          "internalType": "uint256",
          "name": "amount",
          "type": "uint256"
        }
      ],
      "name": "KETHDeposited",
      "type": "event"
    },
    {
      "anonymous": false,
      "inputs": [
        {
          "indexed": true,
          "internalType": "address",
          "name": "depositor",
          "type": "address"
        },
        {
          "indexed": false,
          "internalType": "uint256",
          "name": "amount",
          "type": "uint256"
        }
      ],
      "name": "KETHWithdrawn",
      "type": "event"
    },
    {
      "anonymous": false,
      "inputs": [
        {
          "indexed": true,
          "internalType": "bytes32",
          "name": "role",
          "type": "bytes32"
        },
        {
          "indexed": true,
          "internalType": "bytes32",
          "name": "previousAdminRole",
          "type": "bytes32"
        },
        {
          "indexed": true,
          "internalType": "bytes32",
          "name": "newAdminRole",
          "type": "bytes32"
        }
      ],
      "name": "RoleAdminChanged",
      "type": "event"
    },
    {
      "anonymous": false,
      "inputs": [
        {
          "indexed": true,
          "internalType": "bytes32",
          "name": "role",
          "type": "bytes32"
        },
        {
          "indexed": true,
          "internalType": "address",
          "name": "account",
          "type": "address"
        },
        {
          "indexed": true,
          "internalType": "address",
          "name": "sender",
          "type": "address"
        }
      ],
      "name": "RoleGranted",
      "type": "event"
    },
    {
      "anonymous": false,
      "inputs": [
        {
          "indexed": true,
          "internalType": "bytes32",
          "name": "role",
          "type": "bytes32"
        },
        {
          "indexed": true,
          "internalType": "address",
          "name": "account",
          "type": "address"
        },
        {
          "indexed": true,
          "internalType": "address",
          "name": "sender",
          "type": "address"
        }
      ],
      "name": "RoleRevoked",
      "type": "event"
    },
    {
      "anonymous": false,
      "inputs": [
        {
          "indexed": false,
          "internalType": "address",
          "name": "debtor",
          "type": "address"
        },
        {
          "indexed": false,
          "internalType": "uint256",
          "name": "amount",
          "type": "uint256"
        },
        {
          "indexed": false,
          "internalType": "address",
          "name": "recipient",
          "type": "address"
        }
      ],
      "name": "Slashed",
      "type": "event"
    },
    {
      "anonymous": false,
      "inputs": [
        {
          "indexed": true,
          "internalType": "address",
          "name": "from",
          "type": "address"
        },
        {
          "indexed": true,
          "internalType": "address",
          "name": "to",
          "type": "address"
        },
        {
          "indexed": false,
          "internalType": "uint256",
          "name": "value",
          "type": "uint256"
        }
      ],
      "name": "Transfer",
      "type": "event"
    },
    {
      "inputs": [],
      "name": "CONFIGURATOR_ROLE",
      "outputs": [
        {
          "internalType": "bytes32",
          "name": "",
          "type": "bytes32"
        }
      ],
      "stateMutability": "view",
      "type": "function"
    },
    {
      "inputs": [],
      "name": "DEFAULT_ADMIN_ROLE",
      "outputs": [
        {
          "internalType": "bytes32",
          "name": "",
          "type": "bytes32"
        }
      ],
      "stateMutability": "view",
      "type": "function"
    },
    {
      "inputs": [],
      "name": "REPORTER_ROLE",
      "outputs": [
        {
          "internalType": "bytes32",
          "name": "",
          "type": "bytes32"
        }
      ],
      "stateMutability": "view",
      "type": "function"
    },
    {
      "inputs": [],
      "name": "STRATEGY_ROLE",
      "outputs": [
        {
          "internalType": "bytes32",
          "name": "",
          "type": "bytes32"
        }
      ],
      "stateMutability": "view",
      "type": "function"
    },
    {
      "inputs": [
        {
          "internalType": "address",
          "name": "owner",
          "type": "address"
        },
        {
          "internalType": "address",
          "name": "spender",
          "type": "address"
        }
      ],
      "name": "allowance",
      "outputs": [
        {
          "internalType": "uint256",
          "name": "",
          "type": "uint256"
        }
      ],
      "stateMutability": "view",
      "type": "function"
    },
    {
      "inputs": [
        {
          "internalType": "address",
          "name": "spender",
          "type": "address"
        },
        {
          "internalType": "uint256",
          "name": "value",
          "type": "uint256"
        }
      ],
      "name": "approve",
      "outputs": [
        {
          "internalType": "bool",
          "name": "",
          "type": "bool"
        }
      ],
      "stateMutability": "nonpayable",
      "type": "function"
    },
    {
      "inputs": [],
      "name": "assumedLiquidity",
      "outputs": [
        {
          "internalType": "uint256",
          "name": "",
          "type": "uint256"
        }
      ],
      "stateMutability": "view",
      "type": "function"
    },
    {
      "inputs": [
        {
          "internalType": "address",
          "name": "account",
          "type": "address"
        }
      ],
      "name": "balanceOf",
      "outputs": [
        {
          "internalType": "uint256",
          "name": "",
          "type": "uint256"
        }
      ],
      "stateMutability": "view",
      "type": "function"
    },
    {
      "inputs": [
        {
          "internalType": "address",
          "name": "designatedVerifier",
          "type": "address"
        },
        {
          "internalType": "uint256",
          "name": "amount",
          "type": "uint256"
        },
        {
          "internalType": "uint256",
          "name": "maxSlashableAmountPerLiveness",
          "type": "uint256"
        },
        {
          "internalType": "uint256",
          "name": "maxSlashableAmountPerCorruption",
          "type": "uint256"
        }
      ],
      "name": "borrow",
      "outputs": [],
      "stateMutability": "nonpayable",
      "type": "function"
    },
    {
      "inputs": [],
      "name": "borrowDuration",
      "outputs": [
        {
          "internalType": "uint256",
          "name": "",
          "type": "uint256"
        }
      ],
      "stateMutability": "view",
      "type": "function"
    },
    {
      "inputs": [],
      "name": "borrowedLiquidity",
      "outputs": [
        {
          "internalType": "uint256",
          "name": "",
          "type": "uint256"
        }
      ],
      "stateMutability": "view",
      "type": "function"
    },
    {
      "inputs": [
        {
          "internalType": "address",
          "name": "lender",
          "type": "address"
        }
      ],
      "name": "claimKETH",
      "outputs": [
        {
          "internalType": "uint256",
          "name": "",
          "type": "uint256"
        }
      ],
      "stateMutability": "nonpayable",
      "type": "function"
    },
    {
      "inputs": [],
      "name": "claimKETH",
      "outputs": [
        {
          "internalType": "uint256",
          "name": "",
          "type": "uint256"
        }
      ],
      "stateMutability": "nonpayable",
      "type": "function"
    },
    {
      "inputs": [],
      "name": "currentCumulativeKethPerShare_RAY",
      "outputs": [
        {
          "internalType": "uint256",
          "name": "",
          "type": "uint256"
        }
      ],
      "stateMutability": "view",
      "type": "function"
    },
    {
      "inputs": [],
      "name": "daoAddress",
      "outputs": [
        {
          "internalType": "address",
          "name": "",
          "type": "address"
        }
      ],
      "stateMutability": "view",
      "type": "function"
    },
    {
      "inputs": [
        {
          "internalType": "uint256",
          "name": "",
          "type": "uint256"
        }
      ],
      "name": "debtPositions",
      "outputs": [
        {
          "internalType": "address",
          "name": "debtor",
          "type": "address"
        },
        {
          "internalType": "address",
          "name": "designatedVerifier",
          "type": "address"
        },
        {
          "internalType": "uint256",
          "name": "principalAmount",
          "type": "uint256"
        },
        {
          "internalType": "uint256",
          "name": "interestPerSec_RAY",
          "type": "uint256"
        },
        {
          "internalType": "uint256",
          "name": "endTimestamp",
          "type": "uint256"
        },
        {
          "internalType": "uint256",
          "name": "slashAmount",
          "type": "uint256"
        },
        {
          "internalType": "uint256",
          "name": "maxSlashableAmountPerLiveness",
          "type": "uint256"
        },
        {
          "internalType": "uint256",
          "name": "maxSlashableAmountPerCorruption",
          "type": "uint256"
        }
      ],
      "stateMutability": "view",
      "type": "function"
    },
    {
      "inputs": [
        {
          "internalType": "address",
          "name": "",
          "type": "address"
        }
      ],
      "name": "debtors",
      "outputs": [
        {
          "internalType": "uint256",
          "name": "",
          "type": "uint256"
        }
      ],
      "stateMutability": "view",
      "type": "function"
    },
    {
      "inputs": [],
      "name": "decimals",
      "outputs": [
        {
          "internalType": "uint8",
          "name": "",
          "type": "uint8"
        }
      ],
      "stateMutability": "view",
      "type": "function"
    },
    {
      "inputs": [
        {
          "internalType": "uint256",
          "name": "amount",
          "type": "uint256"
        }
      ],
      "name": "deposit",
      "outputs": [],
      "stateMutability": "nonpayable",
      "type": "function"
    },
    {
      "inputs": [
        {
          "internalType": "uint256",
          "name": "amount",
          "type": "uint256"
        },
        {
          "internalType": "address",
          "name": "recipient",
          "type": "address"
        }
      ],
      "name": "depositFor",
      "outputs": [],
      "stateMutability": "nonpayable",
      "type": "function"
    },
    {
      "inputs": [
        {
          "internalType": "address",
          "name": "debtor",
          "type": "address"
        }
      ],
      "name": "getDebtor",
      "outputs": [
        {
          "components": [
            {
              "internalType": "address",
              "name": "debtor",
              "type": "address"
            },
            {
              "internalType": "address",
              "name": "designatedVerifier",
              "type": "address"
            },
            {
              "internalType": "uint256",
              "name": "principalAmount",
              "type": "uint256"
            },
            {
              "internalType": "uint256",
              "name": "interestPerSec_RAY",
              "type": "uint256"
            },
            {
              "internalType": "uint256",
              "name": "endTimestamp",
              "type": "uint256"
            },
            {
              "internalType": "uint256",
              "name": "slashAmount",
              "type": "uint256"
            },
            {
              "internalType": "uint256",
              "name": "maxSlashableAmountPerLiveness",
              "type": "uint256"
            },
            {
              "internalType": "uint256",
              "name": "maxSlashableAmountPerCorruption",
              "type": "uint256"
            }
          ],
          "internalType": "struct DebtPosition",
          "name": "",
          "type": "tuple"
        }
      ],
      "stateMutability": "view",
      "type": "function"
    },
    {
      "inputs": [
        {
          "internalType": "address",
          "name": "debtor",
          "type": "address"
        }
      ],
      "name": "getDesignatedVerifier",
      "outputs": [
        {
          "internalType": "address",
          "name": "",
          "type": "address"
        }
      ],
      "stateMutability": "view",
      "type": "function"
    },
    {
      "inputs": [
        {
          "internalType": "uint256",
          "name": "principalAmount",
          "type": "uint256"
        },
        {
          "internalType": "uint256",
          "name": "duration",
          "type": "uint256"
        },
        {
          "internalType": "uint256",
          "name": "maxSlashableAmountPerLiveness",
          "type": "uint256"
        },
        {
          "internalType": "uint256",
          "name": "maxSlashableAmountPerCorruption",
          "type": "uint256"
        }
      ],
      "name": "getExpectedInterest",
      "outputs": [
        {
          "internalType": "uint256",
          "name": "",
          "type": "uint256"
        }
      ],
      "stateMutability": "view",
      "type": "function"
    },
    {
      "inputs": [
        {
          "internalType": "address",
          "name": "lender",
          "type": "address"
        }
      ],
      "name": "getLender",
      "outputs": [
        {
          "components": [
            {
              "internalType": "uint256",
              "name": "cumulativeKethPerShareLU_RAY",
              "type": "uint256"
            },
            {
              "internalType": "uint256",
              "name": "kethEarned",
              "type": "uint256"
            }
          ],
          "internalType": "struct LenderPosition",
          "name": "",
          "type": "tuple"
        }
      ],
      "stateMutability": "view",
      "type": "function"
    },
    {
      "inputs": [
        {
          "internalType": "bytes32",
          "name": "role",
          "type": "bytes32"
        }
      ],
      "name": "getRoleAdmin",
      "outputs": [
        {
          "internalType": "bytes32",
          "name": "",
          "type": "bytes32"
        }
      ],
      "stateMutability": "view",
      "type": "function"
    },
    {
      "inputs": [
        {
          "internalType": "bytes32",
          "name": "role",
          "type": "bytes32"
        },
        {
          "internalType": "address",
          "name": "account",
          "type": "address"
        }
      ],
      "name": "grantRole",
      "outputs": [],
      "stateMutability": "nonpayable",
      "type": "function"
    },
    {
      "inputs": [
        {
          "internalType": "bytes32",
          "name": "role",
          "type": "bytes32"
        },
        {
          "internalType": "address",
          "name": "account",
          "type": "address"
        }
      ],
      "name": "hasRole",
      "outputs": [
        {
          "internalType": "bool",
          "name": "",
          "type": "bool"
        }
      ],
      "stateMutability": "view",
      "type": "function"
    },
    {
      "inputs": [
        {
          "internalType": "address",
          "name": "designatedVerifier",
          "type": "address"
        },
        {
          "internalType": "uint256",
          "name": "amount",
          "type": "uint256"
        },
        {
          "internalType": "uint256",
          "name": "maxSlashableAmountPerLiveness",
          "type": "uint256"
        },
        {
          "internalType": "uint256",
          "name": "maxSlashableAmountPerCorruption",
          "type": "uint256"
        }
      ],
      "name": "increaseDebt",
      "outputs": [],
      "stateMutability": "nonpayable",
      "type": "function"
    },
    {
      "inputs": [],
      "name": "interestPerSecLU_RAY",
      "outputs": [
        {
          "internalType": "uint256",
          "name": "",
          "type": "uint256"
        }
      ],
      "stateMutability": "view",
      "type": "function"
    },
    {
      "inputs": [],
      "name": "interestRateModel",
      "outputs": [
        {
          "internalType": "address",
          "name": "",
          "type": "address"
        }
      ],
      "stateMutability": "view",
      "type": "function"
    },
    {
      "inputs": [],
      "name": "keth",
      "outputs": [
        {
          "internalType": "address",
          "name": "",
          "type": "address"
        }
      ],
      "stateMutability": "view",
      "type": "function"
    },
    {
      "inputs": [
        {
          "internalType": "address",
          "name": "",
          "type": "address"
        }
      ],
      "name": "lenders",
      "outputs": [
        {
          "internalType": "uint256",
          "name": "cumulativeKethPerShareLU_RAY",
          "type": "uint256"
        },
        {
          "internalType": "uint256",
          "name": "kethEarned",
          "type": "uint256"
        }
      ],
      "stateMutability": "view",
      "type": "function"
    },
    {
      "inputs": [],
      "name": "maxBorrowRatio_RAY",
      "outputs": [
        {
          "internalType": "uint256",
          "name": "",
          "type": "uint256"
        }
      ],
      "stateMutability": "view",
      "type": "function"
    },
    {
      "inputs": [],
      "name": "maxSlashableRatio_RAY",
      "outputs": [
        {
          "internalType": "uint256",
          "name": "",
          "type": "uint256"
        }
      ],
      "stateMutability": "view",
      "type": "function"
    },
    {
      "inputs": [],
      "name": "minDepositLimit",
      "outputs": [
        {
          "internalType": "uint256",
          "name": "",
          "type": "uint256"
        }
      ],
      "stateMutability": "view",
      "type": "function"
    },
    {
      "inputs": [],
      "name": "name",
      "outputs": [
        {
          "internalType": "string",
          "name": "",
          "type": "string"
        }
      ],
      "stateMutability": "view",
      "type": "function"
    },
    {
      "inputs": [
        {
          "internalType": "bytes32",
          "name": "role",
          "type": "bytes32"
        },
        {
          "internalType": "address",
          "name": "callerConfirmation",
          "type": "address"
        }
      ],
      "name": "renounceRole",
      "outputs": [],
      "stateMutability": "nonpayable",
      "type": "function"
    },
    {
      "inputs": [
        {
          "internalType": "bytes32",
          "name": "role",
          "type": "bytes32"
        },
        {
          "internalType": "address",
          "name": "account",
          "type": "address"
        }
      ],
      "name": "revokeRole",
      "outputs": [],
      "stateMutability": "nonpayable",
      "type": "function"
    },
    {
      "inputs": [
        {
          "internalType": "address",
          "name": "newConfigurator",
          "type": "address"
        }
      ],
      "name": "setConfigurator",
      "outputs": [],
      "stateMutability": "nonpayable",
      "type": "function"
    },
    {
      "inputs": [
        {
          "internalType": "address",
          "name": "newDaoAddress",
          "type": "address"
        }
      ],
      "name": "setDaoAddress",
      "outputs": [],
      "stateMutability": "nonpayable",
      "type": "function"
    },
    {
      "inputs": [
        {
          "internalType": "uint256",
          "name": "newMinDepositLimit",
          "type": "uint256"
        }
      ],
      "name": "setMinDepositLimit",
      "outputs": [],
      "stateMutability": "nonpayable",
      "type": "function"
    },
    {
      "inputs": [
        {
          "internalType": "address",
          "name": "newInterestRateModel",
          "type": "address"
        }
      ],
      "name": "setNewInterestRateModel",
      "outputs": [],
      "stateMutability": "nonpayable",
      "type": "function"
    },
    {
      "inputs": [
        {
          "internalType": "enum ReporterRegistry.SlashType",
          "name": "slashType",
          "type": "uint8"
        },
        {
          "internalType": "address",
          "name": "debtor",
          "type": "address"
        },
        {
          "internalType": "uint256",
          "name": "amount",
          "type": "uint256"
        },
        {
          "internalType": "address",
          "name": "recipient",
          "type": "address"
        }
      ],
      "name": "slash",
      "outputs": [],
      "stateMutability": "nonpayable",
      "type": "function"
    },
    {
      "inputs": [
        {
          "internalType": "bytes4",
          "name": "interfaceId",
          "type": "bytes4"
        }
      ],
      "name": "supportsInterface",
      "outputs": [
        {
          "internalType": "bool",
          "name": "",
          "type": "bool"
        }
      ],
      "stateMutability": "view",
      "type": "function"
    },
    {
      "inputs": [],
      "name": "symbol",
      "outputs": [
        {
          "internalType": "string",
          "name": "",
          "type": "string"
        }
      ],
      "stateMutability": "view",
      "type": "function"
    },
    {
      "inputs": [
        {
          "internalType": "address",
          "name": "debtor",
          "type": "address"
        }
      ],
      "name": "terminate",
      "outputs": [],
      "stateMutability": "nonpayable",
      "type": "function"
    },
    {
      "inputs": [],
      "name": "timestampLU",
      "outputs": [
        {
          "internalType": "uint256",
          "name": "",
          "type": "uint256"
        }
      ],
      "stateMutability": "view",
      "type": "function"
    },
    {
      "inputs": [
        {
          "internalType": "uint256",
          "name": "amount",
          "type": "uint256"
        }
      ],
      "name": "topUpSlashAmount",
      "outputs": [],
      "stateMutability": "nonpayable",
      "type": "function"
    },
    {
      "inputs": [],
      "name": "totalSupply",
      "outputs": [
        {
          "internalType": "uint256",
          "name": "",
          "type": "uint256"
        }
      ],
      "stateMutability": "view",
      "type": "function"
    },
    {
      "inputs": [
        {
          "internalType": "address",
          "name": "to",
          "type": "address"
        },
        {
          "internalType": "uint256",
          "name": "amount",
          "type": "uint256"
        }
      ],
      "name": "transfer",
      "outputs": [
        {
          "internalType": "bool",
          "name": "",
          "type": "bool"
        }
      ],
      "stateMutability": "nonpayable",
      "type": "function"
    },
    {
      "inputs": [
        {
          "internalType": "address",
          "name": "from",
          "type": "address"
        },
        {
          "internalType": "address",
          "name": "to",
          "type": "address"
        },
        {
          "internalType": "uint256",
          "name": "amount",
          "type": "uint256"
        }
      ],
      "name": "transferFrom",
      "outputs": [
        {
          "internalType": "bool",
          "name": "",
          "type": "bool"
        }
      ],
      "stateMutability": "nonpayable",
      "type": "function"
    },
    {
      "inputs": [
        {
          "internalType": "uint256",
          "name": "shares",
          "type": "uint256"
        },
        {
          "internalType": "bool",
          "name": "claim",
          "type": "bool"
        }
      ],
      "name": "withdraw",
      "outputs": [],
      "stateMutability": "nonpayable",
      "type": "function"
    }
  ],
  "bytecode": {
    "object": "0x60c060405267016345785d8a0000600d553480156200001d57600080fd5b506040516200314638038062003146833981016040819052620000409162000348565b838360046200005083826200048d565b5060056200005f82826200048d565b5050506001600160a01b0387166200007657600080fd5b6001600160a01b03878116608052600680546001600160a01b031990811689841617909155600780549091169187169190911790556000600b5542600c55620000cf60008051602062003126833981519152336200016c565b506200010b7f928286c473ded01ff8bf61a1986f14a0579066072fa8261442d9fea514d93a4c600080516020620031268339815191526200021b565b620001467f3204c940063673962b481a0395619b3dbbd137589c419e993978c1c71bcf68ec600080516020620031268339815191526200021b565b62ed4e0060a0526001601081905560115560139190915560145550620005599350505050565b6000828152602081815260408083206001600160a01b038516845290915281205460ff1662000211576000838152602081815260408083206001600160a01b03861684529091529020805460ff19166001179055620001c83390565b6001600160a01b0316826001600160a01b0316847f2f8788117e7eff1d82e926ec794901d17c78024a50270940304540a733656f0d60405160405180910390a450600162000215565b5060005b92915050565b600082815260208190526040808220600101805490849055905190918391839186917fbd79b86ffe0ab8e8776151514217cd7cacd52c909f66475c3af44e129f0b00ff9190a4505050565b80516001600160a01b03811681146200027e57600080fd5b919050565b634e487b7160e01b600052604160045260246000fd5b600082601f830112620002ab57600080fd5b81516001600160401b0380821115620002c857620002c862000283565b604051601f8301601f19908116603f01168101908282118183101715620002f357620002f362000283565b816040528381526020925086838588010111156200031057600080fd5b600091505b8382101562000334578582018301518183018401529082019062000315565b600093810190920192909252949350505050565b600080600080600080600060e0888a0312156200036457600080fd5b6200036f8862000266565b96506200037f6020890162000266565b95506200038f6040890162000266565b60608901519095506001600160401b0380821115620003ad57600080fd5b620003bb8b838c0162000299565b955060808a0151915080821115620003d257600080fd5b50620003e18a828b0162000299565b93505060a0880151915060c0880151905092959891949750929550565b600181811c908216806200041357607f821691505b6020821081036200043457634e487b7160e01b600052602260045260246000fd5b50919050565b601f8211156200048857600081815260208120601f850160051c81016020861015620004635750805b601f850160051c820191505b8181101562000484578281556001016200046f565b5050505b505050565b81516001600160401b03811115620004a957620004a962000283565b620004c181620004ba8454620003fe565b846200043a565b602080601f831160018114620004f95760008415620004e05750858301515b600019600386901b1c1916600185901b17855562000484565b600085815260208120601f198616915b828110156200052a5788860151825594840194600190910190840162000509565b5085821015620005495787850151600019600388901b60f8161c191681555b5050505050600190811b01905550565b60805160a051612b5a620005cc6000396000818161064301528181611fb00152818161203101526120aa01526000818161033e01528181610bc401528181610d700152818161150901528181611554015281816116cf015281816118390152818161200201526122460152612b5a6000f3fe608060405234801561001057600080fd5b506004361061030c5760003560e01c8063620e33e01161019d578063b87f3096116100e9578063e1b1acb7116100a2578063ee1402361161007c578063ee1402361461084b578063f3fdb15a146108cb578063f5065d9c146108de578063fab6687b146108f157600080fd5b8063e1b1acb71461078b578063e812064f1461082f578063edb455291461083857600080fd5b8063b87f309614610706578063c11f873a14610719578063d547741f14610722578063d853015e14610735578063db337f911461074a578063dd62ed3e1461075257600080fd5b80639a53343311610156578063a217fddf11610130578063a217fddf146106b8578063a9059cbb146106c0578063aa6be303146106d3578063b6b55f25146106f357600080fd5b80639a533433146106935780639f5f86ae1461069c5780639fd5be18146106af57600080fd5b8063620e33e01461060c57806370a082311461061557806388856fd41461063e57806391d148541461066557806395d89b41146106785780639a3cac6a1461068057600080fd5b8063313ce5671161025c578063477404a011610215578063580b7c2e116101ef578063580b7c2e146105835780635b10fd43146105aa5780635d263437146105e6578063613af3b6146105f957600080fd5b8063477404a0146104f75780634ef21dca1461050a578063527d59061461051357600080fd5b8063313ce5671461047557806336568abe1461048457806336efd16f1461049757806338baa4c2146104aa57806338d07436146104bd5780633f60d799146104d057600080fd5b806318160ddd116102c9578063248a9ca3116102a3578063248a9ca3146103ee57806326017fe41461041157806328fd10d7146104245780632f2ff15d1461046057600080fd5b806318160ddd146103c05780632131c68c146103c857806323b872dd146103db57600080fd5b806301ffc9a71461031157806302d401741461033957806306fdde031461037857806308182d581461038d578063095ea7b3146103a45780630d363cdd146103b7575b600080fd5b61032461031f366004612700565b610904565b60405190151581526020015b60405180910390f35b6103607f000000000000000000000000000000000000000000000000000000000000000081565b6040516001600160a01b039091168152602001610330565b61038061093b565b604051610330919061274e565b610396600c5481565b604051908152602001610330565b6103246103b236600461279d565b6109cd565b61039660145481565b600354610396565b600654610360906001600160a01b031681565b6103246103e93660046127c7565b6109e5565b6103966103fc366004612803565b60009081526020819052604090206001015490565b61039661041f36600461281c565b610a2d565b61044b61043236600461284e565b600e602052600090815260409020805460019091015482565b60408051928352602083019190915201610330565b61047361046e366004612869565b610ab3565b005b60405160128152602001610330565b610473610492366004612869565b610ade565b6104736104a5366004612869565b610b16565b6104736104b8366004612895565b610cb0565b6104736104cb3660046128dc565b610cfb565b6103967f3204c940063673962b481a0395619b3dbbd137589c419e993978c1c71bcf68ec81565b61039661050536600461284e565b610dd2565b61039660085481565b61056861052136600461284e565b6040805180820190915260008082526020820152506001600160a01b03166000908152600e6020908152604091829020825180840190935280548352600101549082015290565b60408051825181526020928301519281019290925201610330565b6103967f928286c473ded01ff8bf61a1986f14a0579066072fa8261442d9fea514d93a4c81565b6103606105b836600461284e565b6001600160a01b039081166000908152601260209081526040808320548352600f9091529020600101541690565b6104736105f4366004612895565b610df8565b610473610607366004612803565b6110e4565b61039660135481565b61039661062336600461284e565b6001600160a01b031660009081526001602052604090205490565b6103967f000000000000000000000000000000000000000000000000000000000000000081565b610324610673366004612869565b611102565b61038061112b565b61047361068e36600461284e565b61113a565b610396600b5481565b6104736106aa36600461284e565b611175565b610396600d5481565b610396600081565b6103246106ce36600461279d565b6111be565b6103966106e136600461284e565b60126020526000908152604090205481565b610473610701366004612803565b6111ea565b61047361071436600461290c565b6111f7565b610396600a5481565b610473610730366004612869565b6115d0565b610396600080516020612b0583398151915281565b6103966115f5565b61039661076036600461295f565b6001600160a01b03918216600090815260026020908152604080832093909416825291909152205490565b6107e9610799366004612803565b600f60205260009081526040902080546001820154600283015460038401546004850154600586015460068701546007909701546001600160a01b03968716979590961695939492939192909188565b604080516001600160a01b03998a168152989097166020890152958701949094526060860192909252608085015260a084015260c083015260e082015261010001610330565b61039660095481565b61047361084636600461284e565b611618565b61085e61085936600461284e565b61179e565b604051610330919060006101008201905060018060a01b038084511683528060208501511660208401525060408301516040830152606083015160608301526080830151608083015260a083015160a083015260c083015160c083015260e083015160e083015292915050565b600754610360906001600160a01b031681565b6104736108ec366004612803565b61182c565b6104736108ff36600461284e565b6118e7565b60006001600160e01b03198216637965db0b60e01b148061093557506301ffc9a760e01b6001600160e01b03198316145b92915050565b60606004805461094a90612989565b80601f016020809104026020016040519081016040528092919081815260200182805461097690612989565b80156109c35780601f10610998576101008083540402835291602001916109c3565b820191906000526020600020905b8154815290600101906020018083116109a657829003601f168201915b5050505050905090565b6000336109db818585611922565b5060019392505050565b6000836109f18161192f565b836109fb8161192f565b6001600160a01b0386163314610a1657610a168633866119c2565b610a21868686611a3a565b50600195945050505050565b600080676765c793fa10079d601b1b601354600854610a4c91906129d3565b610a5691906129ea565b9050610a71676765c793fa10079d601b1b6301e133806129d3565b85610a8b8389600954610a849190612a0c565b8888611a99565b610a9590896129d3565b610a9f91906129d3565b610aa991906129ea565b9695505050505050565b600082815260208190526040902060010154610ace81611b25565b610ad88383611b2f565b50505050565b6001600160a01b0381163314610b075760405163334bd91960e11b815260040160405180910390fd5b610b118282611bc1565b505050565b610b1e611c2c565b80610b288161192f565b600d54831015610bb75760405162461bcd60e51b815260206004820152604960248201527f426f72726f77696e67506f6f6c3a20417474656d7074696e6720746f2064657060448201527f6f736974206c657373207468616e20746865206d696e696d616c206465706f736064820152681a5d08185b5bdd5b9d60ba1b608482015260a4015b60405180910390fd5b610bec6001600160a01b037f000000000000000000000000000000000000000000000000000000000000000016333086611e3f565b600064e8d4a5100060085410610c0457600854610c0b565b64e8d4a510005b90506000610c1860035490565b15610c405781610c2760035490565b610c3190876129d3565b610c3b91906129ea565b610c42565b845b90508460086000828254610c569190612a0c565b90915550610c6690508482611ea6565b836001600160a01b03167f3f2e1e716c1d26a1c6d79f6ea00b9c19d70895ed10494cf03e058fa6d00ed5c586604051610ca191815260200190565b60405180910390a25050505050565b610cb8611c2c565b3360008181526012602052604090205415610ce55760405162461bcd60e51b8152600401610bae90612a1f565b610cf481868660008787611ee0565b5050505050565b610d03611c2c565b33610d0d8161192f565b6000610d1860035490565b600854610d2590866129d3565b610d2f91906129ea565b9050610d3b33856121e8565b8060086000828254610d4d9190612a70565b90915550508215610d6357610d613361221e565b505b610d976001600160a01b037f00000000000000000000000000000000000000000000000000000000000000001633836122b5565b60405181815233907f2e9d0dd8e70301779c1e8e033bbe978ad745957257e0b92db06b22016ea07d5b9060200160405180910390a250505050565b6000610ddc611c2c565b81610de68161192f565b610def8361221e565b91505b50919050565b610e00611c2c565b3360008181526012602052604081205490819003610e305760405162461bcd60e51b8152600401610bae90612a1f565b6000818152600f602090815260409182902082516101008101845281546001600160a01b039081168252600183015416928101929092526002810154928201929092526003820154606082015260048201546080820152600582015460a08201819052600683015460c083015260079092015460e08201529015610ef65760405162461bcd60e51b815260206004820152601960248201527f546f7020757020736c61736820616d6f756e74206669727374000000000000006044820152606401610bae565b8060c00151851015610f605760405162461bcd60e51b815260206004820152602d60248201527f696e76616c6964206d6178696d756d20736c61736861626c6520616d6f756e7460448201526c20706572206c6976656e65737360981b6064820152608401610bae565b8060e00151841015610fcc5760405162461bcd60e51b815260206004820152602f60248201527f696e76616c6964206d6178696d756d20736c61736861626c6520616d6f756e7460448201526e103832b91031b7b9393ab83a34b7b760891b6064820152608401610bae565b600042826080015111610fe0576000611015565b676765c793fa10079d601b1b428360800151610ffc9190612a70565b836060015161100b91906129d3565b61101591906129ea565b905060008783604001516110299190612a0c565b90508260400151600960008282546110419190612a70565b90915550506060830151600b805460009061105d908490612a70565b90915550506000848152600f6020908152604080832080546001600160a01b03199081168255600182018054909116905560028101849055600381018490556004810184905560058101849055600681018490556007018390556001600160a01b038816835260129091528120556110d9858a83858b8b611ee0565b505050505050505050565b600080516020612b058339815191526110fc81611b25565b50600d55565b6000918252602082815260408084206001600160a01b0393909316845291905290205460ff1690565b60606005805461094a90612989565b600080516020612b0583398151915261115281611b25565b50600680546001600160a01b0319166001600160a01b0392909216919091179055565b600080516020612b0583398151915261118d81611b25565b6111a5600080516020612b0583398151915283611b2f565b50610b11600080516020612b0583398151915233611bc1565b6000336111ca8161192f565b836111d48161192f565b6111df338686611a3a565b506001949350505050565b6111f48133610b16565b50565b7f3204c940063673962b481a0395619b3dbbd137589c419e993978c1c71bcf68ec61122181611b25565b82600854116112725760405162461bcd60e51b815260206004820152601d60248201527f6e6f7420656e6f756768206c697175696469747920746f20736c6173680000006044820152606401610bae565b6001600160a01b038416600090815260126020908152604080832054808452600f909252822090918760018111156112ac576112ac612a83565b0361131857806006015485106113185760405162461bcd60e51b815260206004820152602b60248201527f657863656564206d6178696d756d20736c61736861626c6520616d6f756e742060448201526a706572206c6976656e737360a81b6064820152608401610bae565b600187600181111561132c5761132c612a83565b0361139b578060070154851061139b5760405162461bcd60e51b815260206004820152602e60248201527f657863656564206d6178696d756d20736c61736861626c6520616d6f756e742060448201526d3832b91031b7b9393ab83a34b7b760911b6064820152608401610bae565b6000428260040154116113af5760006113e4565b676765c793fa10079d601b1b4283600401546113cb9190612a70565b83600301546113da91906129d3565b6113e491906129ea565b90508582600501546113f69190612a0c565b676765c793fa10079d601b1b6014548361141091906129d3565b61141a91906129ea565b10156114da5780600860008282546114329190612a0c565b909155505060028201546009805460009061144e908490612a70565b90915550506003820154600b805460009061146a908490612a70565b90915550506001600160a01b0387166000908152601260209081526040808320839055858352600f909152812080546001600160a01b0319908116825560018201805490911690556002810182905560038101829055600481018290556005810182905560068101829055600701555b6005820180548701905560088054879003905560006114fa6002886129ea565b90506115306001600160a01b037f00000000000000000000000000000000000000000000000000000000000000001687836122b5565b60065461157b906001600160a01b031661154a838a612a70565b6001600160a01b037f00000000000000000000000000000000000000000000000000000000000000001691906122b5565b604080516001600160a01b038a81168252602082018a905288168183015290517fd87c3348a79019696e9b472cb0efe979015741dd3a1c95f43cc26dd1ace903c09181900360600190a1505050505050505050565b6000828152602081905260409020600101546115eb81611b25565b610ad88383611bc1565b60006115ff611c2c565b336116098161192f565b6116123361221e565b91505090565b6001600160a01b038116600090815260126020908152604080832054808452600f90925282206004810154919290914210611654576000611689565b676765c793fa10079d601b1b4283600401546116709190612a70565b836003015461167f91906129d3565b61168991906129ea565b90506000676765c793fa10079d601b1b601454836116a791906129d3565b6116b191906129ea565b90508060085411156116c257600080fd5b6116f66001600160a01b037f00000000000000000000000000000000000000000000000000000000000000001686846122b5565b82600201546009600082825461170c9190612a70565b90915550506003830154600b8054600090611728908490612a70565b909155505050506001600160a01b03929092166000908152601260209081526040808320839055928252600f905290812080546001600160a01b03199081168255600182018054909116905560028101829055600381018290556004810182905560058101829055600681018290556007015550565b6117a66126a9565b506001600160a01b039081166000908152601260209081526040808320548352600f8252918290208251610100810184528154851681526001820154909416918401919091526002810154918301919091526003810154606083015260048101546080830152600581015460a0830152600681015460c08301526007015460e082015290565b6118616001600160a01b037f000000000000000000000000000000000000000000000000000000000000000016333084611e3f565b336000818152601260209081526040808320548352600f909152902060058101548311156118d15760405162461bcd60e51b815260206004820152601860248201527f6d6f7265207468616e20736c617368656420616d6f756e7400000000000000006044820152606401610bae565b6005018054839003905550600880549091019055565b600080516020612b058339815191526118ff81611b25565b50600780546001600160a01b0319166001600160a01b0392909216919091179055565b610b1183838360016122e6565b6001600160a01b038116600090815260016020908152604080832054600e909252822054600a54676765c793fa10079d601b1b929161196d91612a70565b61197791906129d3565b61198191906129ea565b600a546001600160a01b0384166000908152600e602052604081209182556001909101805492935083929091906119b9908490612a0c565b90915550505050565b6001600160a01b038381166000908152600260209081526040808320938616835292905220546000198114610ad85781811015611a2b57604051637dc7a0d960e11b81526001600160a01b03841660048201526024810182905260448101839052606401610bae565b610ad8848484840360006122e6565b6001600160a01b038316611a6457604051634b637e8f60e11b815260006004820152602401610bae565b6001600160a01b038216611a8e5760405163ec442f0560e01b815260006004820152602401610bae565b610b118383836123bb565b6007546040516370ebc61760e11b8152600481018690526024810185905260448101849052606481018390526000916001600160a01b03169063e1d78c2e90608401602060405180830381865afa158015611af8573d6000803e3d6000fd5b505050506040513d601f19601f82011682018060405250810190611b1c9190612a99565b95945050505050565b6111f481336124e5565b6000611b3b8383611102565b611bb9576000838152602081815260408083206001600160a01b03861684529091529020805460ff19166001179055611b713390565b6001600160a01b0316826001600160a01b0316847f2f8788117e7eff1d82e926ec794901d17c78024a50270940304540a733656f0d60405160405180910390a4506001610935565b506000610935565b6000611bcd8383611102565b15611bb9576000838152602081815260408083206001600160a01b0386168085529252808320805460ff1916905551339286917ff6391f5c32d9c69d2a47ea670b442974b53935d1edc7fd64eb21e047a839171b9190a4506001610935565b6000611c366126a9565b6011546010541015611e2157506010546000908152600f602090815260409182902082516101008101845281546001600160a01b0390811682526001830154169281019290925260028101549282019290925260038201546060820152600482015460808201819052600583015460a0830152600683015460c083015260079092015460e08201529015611e07574281608001511115611d1657676765c793fa10079d601b1b600c5442611cea9190612a70565b600b54611cf791906129d3565b611d0191906129ea565b611d0b9083612a0c565b42600c559150611e21565b676765c793fa10079d601b1b600c548260800151611d349190612a70565b600b54611d4191906129d3565b611d4b91906129ea565b611d559083612a0c565b91508060800151600c81905550806040015160096000828254611d789190612a70565b90915550506060810151600b8054600090611d94908490612a70565b909155505080516001600160a01b031660009081526012602090815260408083208390556010548352600f909152812080546001600160a01b0319908116825560018201805490911690556002810182905560038101829055600481018290556005810182905560068101829055600701555b60108054906000611e1783612ab2565b9190505550611c36565b600354611e2e90836129ea565b600a60008282546119b99190612a0c565b6040516001600160a01b038481166024830152838116604483015260648201839052610ad89186918216906323b872dd906084015b604051602081830303815290604052915060e01b6020820180516001600160e01b03838183161783525050505061251e565b6001600160a01b038216611ed05760405163ec442f0560e01b815260006004820152602401610bae565b611edc600083836123bb565b5050565b6000676765c793fa10079d601b1b601354600854611efe91906129d3565b611f0891906129ea565b905084600954611f189190612a0c565b811015611f675760405162461bcd60e51b815260206004820152601b60248201527f657863656564206d6178696d756d20626f72726f7720726174696f00000000006044820152606401610bae565b60006301e13380611f878388600954611f809190612a0c565b8787611a99565b611f9190886129d3565b611f9b91906129ea565b90506000676765c793fa10079d601b1b611fd57f0000000000000000000000000000000000000000000000000000000000000000846129d3565b611fdf91906129ea565b90508581111561202f5761202a3330611ff88985612a70565b6001600160a01b037f000000000000000000000000000000000000000000000000000000000000000016929190611e3f565b612072565b7f0000000000000000000000000000000000000000000000000000000000000000612065676765c793fa10079d601b1b886129d3565b61206f91906129ea565b91505b6040518061010001604052808a6001600160a01b03168152602001896001600160a01b031681526020018881526020018381526020017f0000000000000000000000000000000000000000000000000000000000000000426120d49190612a0c565b81526000602080830182905260408084018a90526060938401899052601180548452600f8352818420865181546001600160a01b03199081166001600160a01b03928316178355888601516001840180549092169083161790558784015160028301559587015160038201556080870151600482015560a0870151600582015560c0870151600682015560e0909601516007909601959095558454938e1683526012909152812082905590919061218a83612ab2565b90915550506009805488019055600b8054830190556040518781526001600160a01b038a16907fac59582e5396aca512fa873a2047e7f4c80f8f55d4a06cb34a78a0187f62719f9060200160405180910390a2505050505050505050565b6001600160a01b03821661221257604051634b637e8f60e11b815260006004820152602401610bae565b611edc826000836123bb565b6001600160a01b038082166000908152600e6020526040812060010180549190559061226d907f00000000000000000000000000000000000000000000000000000000000000001683836122b5565b816001600160a01b03167f8c9491fd5f3c775bffa1c39d264f940a28a9a3f1f74ef357f70b1954ac0161e1826040516122a891815260200190565b60405180910390a2919050565b6040516001600160a01b03838116602483015260448201839052610b1191859182169063a9059cbb90606401611e74565b6001600160a01b0384166123105760405163e602df0560e01b815260006004820152602401610bae565b6001600160a01b03831661233a57604051634a1406b160e11b815260006004820152602401610bae565b6001600160a01b0380851660009081526002602090815260408083209387168352929052208290558015610ad857826001600160a01b0316846001600160a01b03167f8c5be1e5ebec7d5bd14f71427d1e84f3dd0314c0f7b2291e5b200ac8c7c3b925846040516123ad91815260200190565b60405180910390a350505050565b6001600160a01b0383166123e65780600360008282546123db9190612a0c565b909155506124589050565b6001600160a01b038316600090815260016020526040902054818110156124395760405163391434e360e21b81526001600160a01b03851660048201526024810182905260448101839052606401610bae565b6001600160a01b03841660009081526001602052604090209082900390555b6001600160a01b03821661247457600380548290039055612493565b6001600160a01b03821660009081526001602052604090208054820190555b816001600160a01b0316836001600160a01b03167fddf252ad1be2c89b69c2b068fc378daa952ba7f163c4a11628f55a4df523b3ef836040516124d891815260200190565b60405180910390a3505050565b6124ef8282611102565b611edc5760405163e2517d3f60e01b81526001600160a01b038216600482015260248101839052604401610bae565b60006125336001600160a01b03841683612581565b905080516000141580156125585750808060200190518101906125569190612acb565b155b15610b1157604051635274afe760e01b81526001600160a01b0384166004820152602401610bae565b606061258f83836000612596565b9392505050565b6060814710156125bb5760405163cd78605960e01b8152306004820152602401610bae565b600080856001600160a01b031684866040516125d79190612ae8565b60006040518083038185875af1925050503d8060008114612614576040519150601f19603f3d011682016040523d82523d6000602084013e612619565b606091505b5091509150610aa98683836060826126395761263482612680565b61258f565b815115801561265057506001600160a01b0384163b155b1561267957604051639996b31560e01b81526001600160a01b0385166004820152602401610bae565b508061258f565b8051156126905780518082602001fd5b604051630a12f52160e11b815260040160405180910390fd5b60405180610100016040528060006001600160a01b0316815260200160006001600160a01b031681526020016000815260200160008152602001600081526020016000815260200160008152602001600081525090565b60006020828403121561271257600080fd5b81356001600160e01b03198116811461258f57600080fd5b60005b8381101561274557818101518382015260200161272d565b50506000910152565b602081526000825180602084015261276d81604085016020870161272a565b601f01601f19169190910160400192915050565b80356001600160a01b038116811461279857600080fd5b919050565b600080604083850312156127b057600080fd5b6127b983612781565b946020939093013593505050565b6000806000606084860312156127dc57600080fd5b6127e584612781565b92506127f360208501612781565b9150604084013590509250925092565b60006020828403121561281557600080fd5b5035919050565b6000806000806080858703121561283257600080fd5b5050823594602084013594506040840135936060013592509050565b60006020828403121561286057600080fd5b61258f82612781565b6000806040838503121561287c57600080fd5b8235915061288c60208401612781565b90509250929050565b600080600080608085870312156128ab57600080fd5b6128b485612781565b966020860135965060408601359560600135945092505050565b80151581146111f457600080fd5b600080604083850312156128ef57600080fd5b823591506020830135612901816128ce565b809150509250929050565b6000806000806080858703121561292257600080fd5b84356002811061293157600080fd5b935061293f60208601612781565b92506040850135915061295460608601612781565b905092959194509250565b6000806040838503121561297257600080fd5b61297b83612781565b915061288c60208401612781565b600181811c9082168061299d57607f821691505b602082108103610df257634e487b7160e01b600052602260045260246000fd5b634e487b7160e01b600052601160045260246000fd5b8082028115828204841417610935576109356129bd565b600082612a0757634e487b7160e01b600052601260045260246000fd5b500490565b80820180821115610935576109356129bd565b60208082526031908201527f426f72726f77696e67506f6f6c20426f72726f773a20446562746f7220686173604082015270081bdd5d1cdd185b991a5b99c81919589d607a1b606082015260800190565b81810381811115610935576109356129bd565b634e487b7160e01b600052602160045260246000fd5b600060208284031215612aab57600080fd5b5051919050565b600060018201612ac457612ac46129bd565b5060010190565b600060208284031215612add57600080fd5b815161258f816128ce565b60008251612afa81846020870161272a565b919091019291505056fe3b49a237fe2d18fa4d9642b8a0e065923cceb71b797783b619a030a61d848bf0a2646970667358221220793c74aa596dd160fd1443f6056bab2f2f0f7979aaa779c73d3e4ba59248df3464736f6c634300081400333b49a237fe2d18fa4d9642b8a0e065923cceb71b797783b619a030a61d848bf0",
    "linkReferences": {}
  },
  "methodIdentifiers": {
    "CONFIGURATOR_ROLE()": "d853015e",
    "DEFAULT_ADMIN_ROLE()": "a217fddf",
    "REPORTER_ROLE()": "3f60d799",
    "STRATEGY_ROLE()": "580b7c2e",
    "allowance(address,address)": "dd62ed3e",
    "approve(address,uint256)": "095ea7b3",
    "assumedLiquidity()": "4ef21dca",
    "balanceOf(address)": "70a08231",
    "borrow(address,uint256,uint256,uint256)": "38baa4c2",
    "borrowDuration()": "88856fd4",
    "borrowedLiquidity()": "e812064f",
    "claimKETH()": "db337f91",
    "claimKETH(address)": "477404a0",
    "currentCumulativeKethPerShare_RAY()": "c11f873a",
    "daoAddress()": "2131c68c",
    "debtPositions(uint256)": "e1b1acb7",
    "debtors(address)": "aa6be303",
    "decimals()": "313ce567",
    "deposit(uint256)": "b6b55f25",
    "depositFor(uint256,address)": "36efd16f",
    "getDebtor(address)": "ee140236",
    "getDesignatedVerifier(address)": "5b10fd43",
    "getExpectedInterest(uint256,uint256,uint256,uint256)": "26017fe4",
    "getLender(address)": "527d5906",
    "getRoleAdmin(bytes32)": "248a9ca3",
    "grantRole(bytes32,address)": "2f2ff15d",
    "hasRole(bytes32,address)": "91d14854",
    "increaseDebt(address,uint256,uint256,uint256)": "5d263437",
    "interestPerSecLU_RAY()": "9a533433",
    "interestRateModel()": "f3fdb15a",
    "keth()": "02d40174",
    "lenders(address)": "28fd10d7",
    "maxBorrowRatio_RAY()": "620e33e0",
    "maxSlashableRatio_RAY()": "0d363cdd",
    "minDepositLimit()": "9fd5be18",
    "name()": "06fdde03",
    "renounceRole(bytes32,address)": "36568abe",
    "revokeRole(bytes32,address)": "d547741f",
    "setConfigurator(address)": "9f5f86ae",
    "setDaoAddress(address)": "9a3cac6a",
    "setMinDepositLimit(uint256)": "613af3b6",
    "setNewInterestRateModel(address)": "fab6687b",
    "slash(uint8,address,uint256,address)": "b87f3096",
    "supportsInterface(bytes4)": "01ffc9a7",
    "symbol()": "95d89b41",
    "terminate(address)": "edb45529",
    "timestampLU()": "08182d58",
    "topUpSlashAmount(uint256)": "f5065d9c",
    "totalSupply()": "18160ddd",
    "transfer(address,uint256)": "a9059cbb",
    "transferFrom(address,address,uint256)": "23b872dd",
    "withdraw(uint256,bool)": "38d07436"
  },
  "id": 0
}