{
  "abi": [
    {
      "inputs": [
        {
          "internalType": "address",
          "name": "_kethVault",
          "type": "address"
        },
        {
          "internalType": "address",
          "name": "_kSquaredLending",
          "type": "address"
        }
      ],
      "stateMutability": "nonpayable",
      "type": "constructor"
    },
    {
      "inputs": [
        {
          "internalType": "address",
          "name": "target",
          "type": "address"
        }
      ],
      "name": "AddressEmptyCode",
      "type": "error"
    },
    {
      "inputs": [
        {
          "internalType": "address",
          "name": "account",
          "type": "address"
        }
      ],
      "name": "AddressInsufficientBalance",
      "type": "error"
    },
    {
      "inputs": [],
      "name": "FailedInnerCall",
      "type": "error"
    },
    {
      "inputs": [
        {
          "internalType": "address",
          "name": "token",
          "type": "address"
        }
      ],
      "name": "SafeERC20FailedOperation",
      "type": "error"
    },
    {
      "inputs": [
        {
          "internalType": "address",
          "name": "token",
          "type": "address"
        },
        {
          "internalType": "uint256",
          "name": "amount",
          "type": "uint256"
        }
      ],
      "name": "deposit",
      "outputs": [],
      "stateMutability": "nonpayable",
      "type": "function"
    },
    {
      "inputs": [],
      "name": "kSquaredLending",
      "outputs": [
        {
          "internalType": "address",
          "name": "",
          "type": "address"
        }
      ],
      "stateMutability": "view",
      "type": "function"
    },
    {
      "inputs": [],
      "name": "kethVault",
      "outputs": [
        {
          "internalType": "address",
          "name": "",
          "type": "address"
        }
      ],
      "stateMutability": "view",
      "type": "function"
    }
  ],
  "bytecode": {
    "object": "0x608060405234801561001057600080fd5b506040516105cb3803806105cb83398101604081905261002f9161007c565b600080546001600160a01b039384166001600160a01b031991821617909155600180549290931691161790556100af565b80516001600160a01b038116811461007757600080fd5b919050565b6000806040838503121561008f57600080fd5b61009883610060565b91506100a660208401610060565b90509250929050565b61050d806100be6000396000f3fe608060405234801561001057600080fd5b50600436106100415760003560e01c806331c7b7ec1461004657806336630ee41461007557806347e7ef2414610088575b600080fd5b600154610059906001600160a01b031681565b6040516001600160a01b03909116815260200160405180910390f35b600054610059906001600160a01b031681565b61009b610096366004610435565b61009d565b005b6100b26001600160a01b038316333084610231565b6000546001600160a01b0383811691161461014f576000805460405163718ba6fb60e01b81526001600160a01b03858116600483015260248201859052306044830152606482019390935291169063718ba6fb906084016020604051808303816000875af1158015610128573d6000803e3d6000fd5b505050506040513d601f19601f8201168201806040525081019061014c919061046d565b90505b60005460015460405163095ea7b360e01b81526001600160a01b0391821660048201526024810184905291169063095ea7b3906044016020604051808303816000875af11580156101a4573d6000803e3d6000fd5b505050506040513d601f19601f820116820180604052508101906101c89190610486565b506001546040516336efd16f60e01b8152600481018390523360248201526001600160a01b03909116906336efd16f90604401600060405180830381600087803b15801561021557600080fd5b505af1158015610229573d6000803e3d6000fd5b505050505050565b604080516001600160a01b0385811660248301528416604482015260648082018490528251808303909101815260849091019091526020810180516001600160e01b03166323b872dd60e01b17905261028b908590610291565b50505050565b60006102a66001600160a01b038416836102fe565b905080516000141580156102cb5750808060200190518101906102c99190610486565b155b156102f957604051635274afe760e01b81526001600160a01b03841660048201526024015b60405180910390fd5b505050565b606061030c83836000610313565b9392505050565b6060814710156103385760405163cd78605960e01b81523060048201526024016102f0565b600080856001600160a01b0316848660405161035491906104a8565b60006040518083038185875af1925050503d8060008114610391576040519150601f19603f3d011682016040523d82523d6000602084013e610396565b606091505b50915091506103a68683836103b0565b9695505050505050565b6060826103c5576103c08261040c565b61030c565b81511580156103dc57506001600160a01b0384163b155b1561040557604051639996b31560e01b81526001600160a01b03851660048201526024016102f0565b508061030c565b80511561041c5780518082602001fd5b604051630a12f52160e11b815260040160405180910390fd5b6000806040838503121561044857600080fd5b82356001600160a01b038116811461045f57600080fd5b946020939093013593505050565b60006020828403121561047f57600080fd5b5051919050565b60006020828403121561049857600080fd5b8151801515811461030c57600080fd5b6000825160005b818110156104c957602081860181015185830152016104af565b50600092019182525091905056fea26469706673582212202ca6949836b7fd0a9e6a2a2d8c4f4e892587633354ed677705c72357c0ca8a6764736f6c63430008140033",
    "linkReferences": {}
  },
  "methodIdentifiers": {
    "deposit(address,uint256)": "47e7ef24",
    "kSquaredLending()": "31c7b7ec",
    "kethVault()": "36630ee4"
  },
  "id": 1
}