{
  "abi": [
    {
      "inputs": [
        {
          "internalType": "address",
          "name": "_kSquaredLendingPool",
          "type": "address"
        },
        {
          "internalType": "string",
          "name": "_eip712Name",
          "type": "string"
        },
        {
          "internalType": "string",
          "name": "_eip712VersionName",
          "type": "string"
        }
      ],
      "stateMutability": "nonpayable",
      "type": "constructor"
    },
    {
      "inputs": [],
      "name": "ECDSAInvalidSignature",
      "type": "error"
    },
    {
      "inputs": [
        {
          "internalType": "uint256",
          "name": "length",
          "type": "uint256"
        }
      ],
      "name": "ECDSAInvalidSignatureLength",
      "type": "error"
    },
    {
      "inputs": [
        {
          "internalType": "bytes32",
          "name": "s",
          "type": "bytes32"
        }
      ],
      "name": "ECDSAInvalidSignatureS",
      "type": "error"
    },
    {
      "inputs": [],
      "name": "InvalidShortString",
      "type": "error"
    },
    {
      "inputs": [
        {
          "internalType": "address",
          "name": "owner",
          "type": "address"
        }
      ],
      "name": "OwnableInvalidOwner",
      "type": "error"
    },
    {
      "inputs": [
        {
          "internalType": "address",
          "name": "account",
          "type": "address"
        }
      ],
      "name": "OwnableUnauthorizedAccount",
      "type": "error"
    },
    {
      "inputs": [],
      "name": "ReentrancyGuardReentrantCall",
      "type": "error"
    },
    {
      "inputs": [
        {
          "internalType": "string",
          "name": "str",
          "type": "string"
        }
      ],
      "name": "StringTooLong",
      "type": "error"
    },
    {
      "anonymous": false,
      "inputs": [
        {
          "indexed": false,
          "internalType": "address",
          "name": "designatedVerifier",
          "type": "address"
        }
      ],
      "name": "DesignatedVerifierUpdated",
      "type": "event"
    },
    {
      "anonymous": false,
      "inputs": [],
      "name": "EIP712DomainChanged",
      "type": "event"
    },
    {
      "anonymous": false,
      "inputs": [
        {
          "indexed": true,
          "internalType": "address",
          "name": "previousOwner",
          "type": "address"
        },
        {
          "indexed": true,
          "internalType": "address",
          "name": "newOwner",
          "type": "address"
        }
      ],
      "name": "OwnershipTransferred",
      "type": "event"
    },
    {
      "anonymous": false,
      "inputs": [
        {
          "indexed": false,
          "internalType": "address",
          "name": "reporter",
          "type": "address"
        },
        {
          "indexed": false,
          "internalType": "address",
          "name": "debtor",
          "type": "address"
        },
        {
          "indexed": false,
          "internalType": "uint256",
          "name": "amount",
          "type": "uint256"
        }
      ],
      "name": "ReportSubmitted",
      "type": "event"
    },
    {
      "anonymous": false,
      "inputs": [
        {
          "indexed": false,
          "internalType": "address",
          "name": "reporter",
          "type": "address"
        }
      ],
      "name": "ReporterRagequitted",
      "type": "event"
    },
    {
      "anonymous": false,
      "inputs": [
        {
          "indexed": false,
          "internalType": "address",
          "name": "reporter",
          "type": "address"
        }
      ],
      "name": "ReporterRegistered",
      "type": "event"
    },
    {
      "inputs": [],
      "name": "REPORT_TYPEHASH",
      "outputs": [
        {
          "internalType": "bytes32",
          "name": "",
          "type": "bytes32"
        }
      ],
      "stateMutability": "view",
      "type": "function"
    },
    {
      "inputs": [],
      "name": "eip712Domain",
      "outputs": [
        {
          "internalType": "bytes1",
          "name": "fields",
          "type": "bytes1"
        },
        {
          "internalType": "string",
          "name": "name",
          "type": "string"
        },
        {
          "internalType": "string",
          "name": "version",
          "type": "string"
        },
        {
          "internalType": "uint256",
          "name": "chainId",
          "type": "uint256"
        },
        {
          "internalType": "address",
          "name": "verifyingContract",
          "type": "address"
        },
        {
          "internalType": "bytes32",
          "name": "salt",
          "type": "bytes32"
        },
        {
          "internalType": "uint256[]",
          "name": "extensions",
          "type": "uint256[]"
        }
      ],
      "stateMutability": "view",
      "type": "function"
    },
    {
      "inputs": [
        {
          "internalType": "uint256",
          "name": "",
          "type": "uint256"
        }
      ],
      "name": "isReportUsed",
      "outputs": [
        {
          "internalType": "bool",
          "name": "",
          "type": "bool"
        }
      ],
      "stateMutability": "view",
      "type": "function"
    },
    {
      "inputs": [
        {
          "internalType": "address",
          "name": "",
          "type": "address"
        }
      ],
      "name": "isReporterActive",
      "outputs": [
        {
          "internalType": "bool",
          "name": "",
          "type": "bool"
        }
      ],
      "stateMutability": "view",
      "type": "function"
    },
    {
      "inputs": [
        {
          "internalType": "address",
          "name": "_reporter",
          "type": "address"
        }
      ],
      "name": "isReporterOperational",
      "outputs": [
        {
          "internalType": "bool",
          "name": "",
          "type": "bool"
        }
      ],
      "stateMutability": "view",
      "type": "function"
    },
    {
      "inputs": [
        {
          "internalType": "address",
          "name": "",
          "type": "address"
        }
      ],
      "name": "isReporterRagequitted",
      "outputs": [
        {
          "internalType": "bool",
          "name": "",
          "type": "bool"
        }
      ],
      "stateMutability": "view",
      "type": "function"
    },
    {
      "inputs": [],
      "name": "kSquaredLendingPool",
      "outputs": [
        {
          "internalType": "address",
          "name": "",
          "type": "address"
        }
      ],
      "stateMutability": "view",
      "type": "function"
    },
    {
      "inputs": [],
      "name": "owner",
      "outputs": [
        {
          "internalType": "address",
          "name": "",
          "type": "address"
        }
      ],
      "stateMutability": "view",
      "type": "function"
    },
    {
      "inputs": [],
      "name": "ragequitReporter",
      "outputs": [],
      "stateMutability": "nonpayable",
      "type": "function"
    },
    {
      "inputs": [],
      "name": "registerReporter",
      "outputs": [],
      "stateMutability": "nonpayable",
      "type": "function"
    },
    {
      "inputs": [],
      "name": "renounceOwnership",
      "outputs": [],
      "stateMutability": "nonpayable",
      "type": "function"
    },
    {
      "inputs": [
        {
          "components": [
            {
              "internalType": "enum ReporterRegistry.SlashType",
              "name": "slashType",
              "type": "uint8"
            },
            {
              "internalType": "address",
              "name": "debtor",
              "type": "address"
            },
            {
              "internalType": "uint256",
              "name": "amount",
              "type": "uint256"
            },
            {
              "internalType": "uint256",
              "name": "identifier",
              "type": "uint256"
            },
            {
              "internalType": "uint256",
              "name": "block",
              "type": "uint256"
            },
            {
              "internalType": "bytes",
              "name": "signature",
              "type": "bytes"
            }
          ],
          "internalType": "struct ReporterRegistry.Report",
          "name": "_report",
          "type": "tuple"
        },
        {
          "components": [
            {
              "internalType": "uint8",
              "name": "v",
              "type": "uint8"
            },
            {
              "internalType": "bytes32",
              "name": "r",
              "type": "bytes32"
            },
            {
              "internalType": "bytes32",
              "name": "s",
              "type": "bytes32"
            }
          ],
          "internalType": "struct ReporterRegistry.SignatureECDSA",
          "name": "_reportSignature",
          "type": "tuple"
        }
      ],
      "name": "submitReport",
      "outputs": [],
      "stateMutability": "nonpayable",
      "type": "function"
    },
    {
      "inputs": [
        {
          "internalType": "address",
          "name": "newOwner",
          "type": "address"
        }
      ],
      "name": "transferOwnership",
      "outputs": [],
      "stateMutability": "nonpayable",
      "type": "function"
    }
  ],
  "bytecode": {
    "object": "0x6101606040523480156200001257600080fd5b50604051620016d2380380620016d28339810160408190526200003591620002e6565b818133806200005f57604051631e4fbdf760e01b8152600060048201526024015b60405180910390fd5b6200006a816200014d565b50620000788260016200019d565b61012052620000898160026200019d565b61014052815160208084019190912060e052815190820120610100524660a0526200011760e05161010051604080517f8b73c3c69bb8fe3d512ecc4cf759cc79239f7b179b0ffacaa9a75d522b39400f60208201529081019290925260608201524660808201523060a082015260009060c00160405160208183030381529060405280519060200120905090565b60805250503060c05250506001600355600480546001600160a01b0319166001600160a01b039290921691909117905562000525565b600080546001600160a01b038381166001600160a01b0319831681178455604051919092169283917f8be0079c531659141344cd1fd0a4f28419497f9722a3daafe3b4186f6b6457e09190a35050565b6000602083511015620001bd57620001b583620001d6565b9050620001d0565b81620001ca8482620003ff565b5060ff90505b92915050565b600080829050601f8151111562000204578260405163305a27a960e01b8152600401620000569190620004cb565b8051620002118262000500565b179392505050565b634e487b7160e01b600052604160045260246000fd5b60005b838110156200024c57818101518382015260200162000232565b50506000910152565b600082601f8301126200026757600080fd5b81516001600160401b038082111562000284576200028462000219565b604051601f8301601f19908116603f01168101908282118183101715620002af57620002af62000219565b81604052838152866020858801011115620002c957600080fd5b620002dc8460208301602089016200022f565b9695505050505050565b600080600060608486031215620002fc57600080fd5b83516001600160a01b03811681146200031457600080fd5b60208501519093506001600160401b03808211156200033257600080fd5b620003408783880162000255565b935060408601519150808211156200035757600080fd5b50620003668682870162000255565b9150509250925092565b600181811c908216806200038557607f821691505b602082108103620003a657634e487b7160e01b600052602260045260246000fd5b50919050565b601f821115620003fa57600081815260208120601f850160051c81016020861015620003d55750805b601f850160051c820191505b81811015620003f657828155600101620003e1565b5050505b505050565b81516001600160401b038111156200041b576200041b62000219565b62000433816200042c845462000370565b84620003ac565b602080601f8311600181146200046b5760008415620004525750858301515b600019600386901b1c1916600185901b178555620003f6565b600085815260208120601f198616915b828110156200049c578886015182559484019460019091019084016200047b565b5085821015620004bb5787850151600019600388901b60f8161c191681555b5050505050600190811b01905550565b6020815260008251806020840152620004ec8160408501602087016200022f565b601f01601f19169190910160400192915050565b80516020808301519190811015620003a65760001960209190910360031b1b16919050565b60805160a05160c05160e0516101005161012051610140516111526200058060003960006108de015260006108ac01526000610b6101526000610b3901526000610a9401526000610abe01526000610ae801526111526000f3fe608060405234801561001057600080fd5b50600436106100cf5760003560e01c8063715018a61161008c57806384b0196e1161006657806384b0196e146101ea5780638da5cb5b14610205578063965336d814610216578063f2fde38b1461021e57600080fd5b8063715018a6146101ac5780637fadd755146101b457806383612af9146101d757600080fd5b8063103c12c1146100d45780632468fe9e1461010457806330a63c9f146101375780634a882fc3146101415780635e65db2314610176578063654521f014610189575b600080fd5b6004546100e7906001600160a01b031681565b6040516001600160a01b0390911681526020015b60405180910390f35b610127610112366004610dcf565b60076020526000908152604090205460ff1681565b60405190151581526020016100fb565b61013f610231565b005b6101687f4352fc3864fd6f94dbf2b42d0b365813b8c24532ae2fefa68d2993e095be585c81565b6040519081526020016100fb565b610127610184366004610dfd565b610340565b610127610197366004610dfd565b60056020526000908152604090205460ff1681565b61013f610387565b6101276101c2366004610dfd565b60066020526000908152604090205460ff1681565b61013f6101e5366004610e21565b61039b565b6101f2610545565b6040516100fb9796959493929190610ec6565b6000546001600160a01b03166100e7565b61013f61058b565b61013f61022c366004610dfd565b610635565b3360008181526005602052604090205460ff16156102965760405162461bcd60e51b815260206004820152601b60248201527f5265706f7274657220616c72656164792072656769737465726564000000000060448201526064015b60405180910390fd5b3332146102e55760405162461bcd60e51b815260206004820152601d60248201527f436f6e7472616374732063616e6e6f74206265207265706f7274657273000000604482015260640161028d565b6001600160a01b038116600081815260056020908152604091829020805460ff1916600117905590519182527ff761f8e41ce3e566cee51d2a2197e8db130cfaf8e33c0d88621dbe6cdef7e4b491015b60405180910390a150565b6001600160a01b03811660009081526005602052604081205460ff16801561038157506001600160a01b03821660009081526006602052604090205460ff16155b92915050565b61038f610673565b61039960006106a0565b565b6103a36106f0565b336103ad81610340565b6103f95760405162461bcd60e51b815260206004820152601860248201527f5265706f72746572206e6f6e2d6f7065726174696f6e616c0000000000000000604482015260640161028d565b610403828461071a565b61044f5760405162461bcd60e51b815260206004820152601860248201527f5265706f7274207369676e617475726520696e76616c69640000000000000000604482015260640161028d565b6004546001600160a01b031663b87f309661046d6020860186610f5c565b61047d6040870160208801610dfd565b8660400135856040518563ffffffff1660e01b81526004016104a29493929190610f93565b600060405180830381600087803b1580156104bc57600080fd5b505af11580156104d0573d6000803e3d6000fd5b505050507fe454e2a62061933467f0642e772a8e280b5cc74107a8edb2a77999955395f99f818460200160208101906105099190610dfd565b604080516001600160a01b039384168152929091166020830152808601359082015260600160405180910390a1506105416001600355565b5050565b6000606080600080600060606105596108a5565b6105616108d7565b60408051600080825260208201909252600f60f81b9b939a50919850469750309650945092509050565b3361059581610340565b6105e15760405162461bcd60e51b815260206004820152601860248201527f5265706f72746572206e6f74206f7065726174696f6e616c0000000000000000604482015260640161028d565b6001600160a01b038116600090815260066020908152604091829020805460ff1916600117905590513381527fb43a381900658be21a4ed742c88a5254017f033cd3fe1aca72a3ba9c3123e2c19101610335565b61063d610673565b6001600160a01b03811661066757604051631e4fbdf760e01b81526000600482015260240161028d565b610670816106a0565b50565b6000546001600160a01b031633146103995760405163118cdaa760e01b815233600482015260240161028d565b600080546001600160a01b038381166001600160a01b0319831681178455604051919092169283917f8be0079c531659141344cd1fd0a4f28419497f9722a3daafe3b4186f6b6457e09190a35050565b60026003540361071357604051633ee5aeb560e01b815260040160405180910390fd5b6002600355565b6000816080013543111561075a5760405162461bcd60e51b8152602060048201526007602482015266115e1c1a5c995960ca1b604482015260640161028d565b606082013560009081526007602052604090205460ff16156107b65760405162461bcd60e51b815260206004820152601560248201527414db1bdd08185b1c9958591e481c995c1bdc9d1959605a1b604482015260640161028d565b60007f4352fc3864fd6f94dbf2b42d0b365813b8c24532ae2fefa68d2993e095be585c6107e66020850185610f5c565b6107f66040860160208701610dfd565b60408601356060870135608088013561081260a08a018a610fdc565b60405161082092919061102a565b60405190819003812061083b9796959493929160200161103a565b604051602081830303815290604052805190602001209050600061085e82610904565b6060850135600090815260076020908152604091829020805460ff1916600117905591925061089c91610895918701908701610dfd565b8683610931565b95945050505050565b60606108d27f000000000000000000000000000000000000000000000000000000000000000060016109dc565b905090565b60606108d27f000000000000000000000000000000000000000000000000000000000000000060026109dc565b6000610381610911610a87565b8360405161190160f01b8152600281019290925260228201526042902090565b6000806109548361094560208701876110a2565b86602001358760400135610bb2565b60048054604051635b10fd4360e01b81526001600160a01b03898116938201939093529293501690635b10fd4390602401602060405180830381865afa1580156109a2573d6000803e3d6000fd5b505050506040513d601f19601f820116820180604052508101906109c691906110c5565b6001600160a01b03918216911614949350505050565b606060ff83146109f6576109ef83610be0565b9050610381565b818054610a02906110e2565b80601f0160208091040260200160405190810160405280929190818152602001828054610a2e906110e2565b8015610a7b5780601f10610a5057610100808354040283529160200191610a7b565b820191906000526020600020905b815481529060010190602001808311610a5e57829003601f168201915b50505050509050610381565b6000306001600160a01b037f000000000000000000000000000000000000000000000000000000000000000016148015610ae057507f000000000000000000000000000000000000000000000000000000000000000046145b15610b0a57507f000000000000000000000000000000000000000000000000000000000000000090565b6108d2604080517f8b73c3c69bb8fe3d512ecc4cf759cc79239f7b179b0ffacaa9a75d522b39400f60208201527f0000000000000000000000000000000000000000000000000000000000000000918101919091527f000000000000000000000000000000000000000000000000000000000000000060608201524660808201523060a082015260009060c00160405160208183030381529060405280519060200120905090565b600080600080610bc488888888610c1f565b925092509250610bd48282610cee565b50909695505050505050565b60606000610bed83610da7565b604080516020808252818301909252919250600091906020820181803683375050509182525060208101929092525090565b600080807f7fffffffffffffffffffffffffffffff5d576e7357a4501ddfe92f46681b20a0841115610c5a5750600091506003905082610ce4565b604080516000808252602082018084528a905260ff891692820192909252606081018790526080810186905260019060a0016020604051602081039080840390855afa158015610cae573d6000803e3d6000fd5b5050604051601f1901519150506001600160a01b038116610cda57506000925060019150829050610ce4565b9250600091508190505b9450945094915050565b6000826003811115610d0257610d02610f7d565b03610d0b575050565b6001826003811115610d1f57610d1f610f7d565b03610d3d5760405163f645eedf60e01b815260040160405180910390fd5b6002826003811115610d5157610d51610f7d565b03610d725760405163fce698f760e01b81526004810182905260240161028d565b6003826003811115610d8657610d86610f7d565b03610541576040516335e2f38360e21b81526004810182905260240161028d565b600060ff8216601f81111561038157604051632cd44ac360e21b815260040160405180910390fd5b600060208284031215610de157600080fd5b5035919050565b6001600160a01b038116811461067057600080fd5b600060208284031215610e0f57600080fd5b8135610e1a81610de8565b9392505050565b6000808284036080811215610e3557600080fd5b833567ffffffffffffffff811115610e4c57600080fd5b840160c08187031215610e5e57600080fd5b92506060601f1982011215610e7257600080fd5b506020830190509250929050565b6000815180845260005b81811015610ea657602081850181015186830182015201610e8a565b506000602082860101526020601f19601f83011685010191505092915050565b60ff60f81b881681526000602060e081840152610ee660e084018a610e80565b8381036040850152610ef8818a610e80565b606085018990526001600160a01b038816608086015260a0850187905284810360c0860152855180825283870192509083019060005b81811015610f4a57835183529284019291840191600101610f2e565b50909c9b505050505050505050505050565b600060208284031215610f6e57600080fd5b813560028110610e1a57600080fd5b634e487b7160e01b600052602160045260246000fd5b6080810160028610610fb557634e487b7160e01b600052602160045260246000fd5b9481526001600160a01b039384166020820152604081019290925290911660609091015290565b6000808335601e19843603018112610ff357600080fd5b83018035915067ffffffffffffffff82111561100e57600080fd5b60200191503681900382131561102357600080fd5b9250929050565b8183823760009101908152919050565b87815260006002881061105d57634e487b7160e01b600052602160045260246000fd5b5060f89690961b602087015260609490941b6bffffffffffffffffffffffff19166021860152603585019290925260558401526075830152609582015260b501919050565b6000602082840312156110b457600080fd5b813560ff81168114610e1a57600080fd5b6000602082840312156110d757600080fd5b8151610e1a81610de8565b600181811c908216806110f657607f821691505b60208210810361111657634e487b7160e01b600052602260045260246000fd5b5091905056fea26469706673582212206ba26f450428da1c0bfe986d8710fa3550f26f23d86262d9131a965b546ccfa464736f6c63430008140033",
    "linkReferences": {}
  },
  "methodIdentifiers": {
    "REPORT_TYPEHASH()": "4a882fc3",
    "eip712Domain()": "84b0196e",
    "isReportUsed(uint256)": "2468fe9e",
    "isReporterActive(address)": "654521f0",
    "isReporterOperational(address)": "5e65db23",
    "isReporterRagequitted(address)": "7fadd755",
    "kSquaredLendingPool()": "103c12c1",
    "owner()": "8da5cb5b",
    "ragequitReporter()": "965336d8",
    "registerReporter()": "30a63c9f",
    "renounceOwnership()": "715018a6",
    "submitReport((uint8,address,uint256,uint256,uint256,bytes),(uint8,bytes32,bytes32))": "83612af9",
    "transferOwnership(address)": "f2fde38b"
  },
  "id": 3
}