{
  "abi": [
    {
      "inputs": [
        {
          "internalType": "uint256",
          "name": "_baseRateRAY",
          "type": "uint256"
        },
        {
          "internalType": "uint256",
          "name": "_optimalRateRAY",
          "type": "uint256"
        },
        {
          "internalType": "uint256",
          "name": "_maxRateRAY",
          "type": "uint256"
        },
        {
          "internalType": "uint256",
          "name": "_breakpointRAY",
          "type": "uint256"
        },
        {
          "internalType": "uint256",
          "name": "_maxSlashableAmountPerLivenessUpper",
          "type": "uint256"
        },
        {
          "internalType": "uint256",
          "name": "_maxSlashableAmountPerCorruptionUpper",
          "type": "uint256"
        }
      ],
      "stateMutability": "nonpayable",
      "type": "constructor"
    },
    {
      "inputs": [],
      "name": "baseRateRAY",
      "outputs": [
        {
          "internalType": "uint256",
          "name": "",
          "type": "uint256"
        }
      ],
      "stateMutability": "view",
      "type": "function"
    },
    {
      "inputs": [],
      "name": "breakpointRAY",
      "outputs": [
        {
          "internalType": "uint256",
          "name": "",
          "type": "uint256"
        }
      ],
      "stateMutability": "view",
      "type": "function"
    },
    {
      "inputs": [
        {
          "internalType": "uint256",
          "name": "assumedLiquidity",
          "type": "uint256"
        },
        {
          "internalType": "uint256",
          "name": "borrowedLiquidity",
          "type": "uint256"
        },
        {
          "internalType": "uint256",
          "name": "maxSlashableAmountPerLiveness",
          "type": "uint256"
        },
        {
          "internalType": "uint256",
          "name": "maxSlashableAmountPerCorruption",
          "type": "uint256"
        }
      ],
      "name": "getInterestRate",
      "outputs": [
        {
          "internalType": "uint256",
          "name": "",
          "type": "uint256"
        }
      ],
      "stateMutability": "view",
      "type": "function"
    },
    {
      "inputs": [],
      "name": "maxRateRAY",
      "outputs": [
        {
          "internalType": "uint256",
          "name": "",
          "type": "uint256"
        }
      ],
      "stateMutability": "view",
      "type": "function"
    },
    {
      "inputs": [],
      "name": "maxSlashableAmountPerCorruptionUpper",
      "outputs": [
        {
          "internalType": "uint256",
          "name": "",
          "type": "uint256"
        }
      ],
      "stateMutability": "view",
      "type": "function"
    },
    {
      "inputs": [],
      "name": "maxSlashableAmountPerLivenessUpper",
      "outputs": [
        {
          "internalType": "uint256",
          "name": "",
          "type": "uint256"
        }
      ],
      "stateMutability": "view",
      "type": "function"
    },
    {
      "inputs": [],
      "name": "optimalRateRAY",
      "outputs": [
        {
          "internalType": "uint256",
          "name": "",
          "type": "uint256"
        }
      ],
      "stateMutability": "view",
      "type": "function"
    }
  ],
  "bytecode": {
    "object": "0x61014060405234801561001157600080fd5b5060405161071838038061071883398101604081905261003091610114565b858510156100945760405162461bcd60e51b815260206004820152602660248201527f426173652052617465205261792065786365656473204f7074696d616c20526160448201526574652052617960d01b60648201526084015b60405180910390fd5b848410156100f25760405162461bcd60e51b815260206004820152602560248201527f4f7074696d616c2072617465205261792065786365656473204d617820526174604482015264652052617960d81b606482015260840161008b565b60809590955260a09390935260c09190915260e052610100526101205261015e565b60008060008060008060c0878903121561012d57600080fd5b865195506020870151945060408701519350606087015192506080870151915060a087015190509295509295509295565b60805160a05160c05160e05161010051610120516105136102056000396000818160c001526103a801526000818161013501526103dd0152600081816087015281816101e40152818161020c015281816102c001526102f601526000818160e7015261034101526000818161010e0152818161025201528181610320015261037f01526000818161015c0152818161019901528181610231015261029001526105136000f3fe608060405234801561001057600080fd5b506004361061007d5760003560e01c8063770f6ab51161005b578063770f6ab51461010957806384a3fc6b14610130578063e1519c6514610157578063e1d78c2e1461017e57600080fd5b80633c15f91c1461008257806341867a0b146100bb5780636589efdf146100e2575b600080fd5b6100a97f000000000000000000000000000000000000000000000000000000000000000081565b60405190815260200160405180910390f35b6100a97f000000000000000000000000000000000000000000000000000000000000000081565b6100a97f000000000000000000000000000000000000000000000000000000000000000081565b6100a97f000000000000000000000000000000000000000000000000000000000000000081565b6100a97f000000000000000000000000000000000000000000000000000000000000000081565b6100a97f000000000000000000000000000000000000000000000000000000000000000081565b6100a961018c366004610430565b6000846000036101bd57507f0000000000000000000000000000000000000000000000000000000000000000610428565b6000856101d6866b033b2e3c9fd0803ce8000000610478565b6101e09190610495565b90507f00000000000000000000000000000000000000000000000000000000000000008110156102bb577f0000000000000000000000000000000000000000000000000000000000000000816102767f00000000000000000000000000000000000000000000000000000000000000007f00000000000000000000000000000000000000000000000000000000000000006104b7565b6102809190610478565b61028a9190610495565b6102b4907f00000000000000000000000000000000000000000000000000000000000000006104ca565b90506103a6565b6102f17f00000000000000000000000000000000000000000000000000000000000000006b033b2e3c9fd0803ce80000006104b7565b61031b7f0000000000000000000000000000000000000000000000000000000000000000836104b7565b6103657f00000000000000000000000000000000000000000000000000000000000000007f00000000000000000000000000000000000000000000000000000000000000006104b7565b61036f9190610478565b6103799190610495565b6103a3907f00000000000000000000000000000000000000000000000000000000000000006104ca565b90505b7f00000000000000000000000000000000000000000000000000000000000000006103d18483610478565b6103db9190610495565b7f00000000000000000000000000000000000000000000000000000000000000006104068684610478565b6104109190610495565b61041a90836104ca565b61042491906104ca565b9150505b949350505050565b6000806000806080858703121561044657600080fd5b5050823594602084013594506040840135936060013592509050565b634e487b7160e01b600052601160045260246000fd5b808202811582820484141761048f5761048f610462565b92915050565b6000826104b257634e487b7160e01b600052601260045260246000fd5b500490565b8181038181111561048f5761048f610462565b8082018082111561048f5761048f61046256fea2646970667358221220e3373260e346d0add32891e377477c272689a2cc5e892ea5b5494d1c51ed37e064736f6c63430008150033",
    "linkReferences": {}
  },
  "methodIdentifiers": {
    "baseRateRAY()": "e1519c65",
    "breakpointRAY()": "3c15f91c",
    "getInterestRate(uint256,uint256,uint256,uint256)": "e1d78c2e",
    "maxRateRAY()": "6589efdf",
    "maxSlashableAmountPerCorruptionUpper()": "41867a0b",
    "maxSlashableAmountPerLivenessUpper()": "84a3fc6b",
    "optimalRateRAY()": "770f6ab5"
  },
  "id": 2
}